:020000040800F2
:100000006006002039020008770200087902000823
:100010007B0200087D0200087F020008000000004B
:100020000000000000000000000000008102000845
:100030008302000800000000850200088702000813
:100040008902000889020008890200088902000864
:100050008902000889020008890200088902000854
:100060008902000889020008890200088902000844
:100070008902000889020008890200088902000834
:100080008902000889020008890200088902000824
:100090008902000889020008890200088902000814
:1000A0008902000889020008890200088902000804
:1000B00089020008890200088902000889020008F4
:1000C00089020008890200088902000889020008E4
:1000D00089020008890200088902000889020008D4
:1000E00089020008890200088902000889020008C4
:1000F00089020008890200088902000889020008B4
:1001000089020008890200088902000889020008A3
:100110008902000889020008890200088902000893
:100120008902000889020008890200088902000883
:100130008902000889020008890200088902000873
:100140008902000889020008890200088902000863
:100150008902000889020008890200088902000853
:100160008902000889020008890200088902000843
:1001700089020008890200088902000800000000C6
:10018000890200088902000800F002F800F044F833
:1001900014A696E8000CB244B344DA4501D100F04D
:1001A0003BF8BAE80F000FA696E83000A5EB04056F
:1001B00004EB0607AAEB0704A7F101074FEA1515A0
:1001C0004FEA3414A4F10104AC4201D300F024F846
:1001D00013F0010F18BFFB1A43F0010300F001F800
:1001E000DBE71847F402000004030000704700003A
:1001F0000023002400250026103A28BF78C1FBD830
:10020000520728BF30C148BF0B6070471FB500F0D0
:1002100055F91FBD10B510BD00F057F81146FFF796
:10022000F5FF00F041F900F075F803B4FFF7F2FFB5
:1002300003BC00F07DF8000017481849184B99429C
:100240003CBF50F8042B41F8042BF8D3154B16494A
:100250004FF000028B4238BF43F8042BFAD3DFF88B
:100260004C00016841F470010160BFF34F8FBFF390
:100270006F8F0F480047FEE7FEE7FEE7FEE7FEE769
:10028000FEE7FEE7FEE7FEE7FEE7000009480A4951
:100290000A4A0B4B70470000E804000800000020E9
:1002A00000000020000000206006002088ED00E033
:1002B0008901000860000020600600206002002024
:1002C00060020020704770477047754600F02CF8B8
:1002D000AE4605006946534620F00700854618B033
:1002E00020B5FFF7D3FFBDE820404FF000064FF0E8
:1002F00000074FF000084FF0000BAC46ACE8C00917
:10030000ACE8C009ACE8C009ACE8C00921F00701BD
:100310008D46704710B50446AFF300802046BDE817
:100320001040FFF782BF0000004870470000002027
:1003300001491820ABBEFEE726000200704700000E
:1003400082B040F61401C4F600010091086820F064
:1003500020000860086840F040000860086840F429
:1003600080700860086820F4007008600020019028
:10037000FFE70198B0F57A7F05DAFFE7FFE701981C
:1003800001300190F5E740F61401C4F60001086859
:1003900020F020000860086840F04000086008680D
:1003A00020F480700860086840F4007008600868F5
:1003B00040F020000860086820F0400008600868ED
:1003C00020F480700860086840F4007008600868D5
:1003D00040F020000860086820F0400008600868CD
:1003E00040F480700860086820F40070086002B073
:1003F0007047000041F24C01C4F20201086840F06D
:100400000400086040F60001C4F60001086840F4EA
:1004100080600860086840F480500860086840F414
:1004200080300860086840F48020086040F60801C9
:10043000C4F60001086840F400600860086840F4F1
:1004400000500860086840F400300860086840F414
:100450000020086040F60401C4F60001086820F09E
:1004600020000860086820F040000860086820F458
:1004700080700860086820F40070086040F60C0185
:10048000C4F60001086820F440600860086820F4A1
:1004900040500860086820F440300860086820F484
:1004A000402008607047000080B582B000200190B5
:1004B000FFF7A0FFFFE7FFF743FFFCE7F1EE100AAD
:1004C0004FF6FF71C0F2C03120EA010040F04070E9
:1004D000E1EE100A70470000E80400080000002068
:0804E00060060000F0010008B5
:040000050800018965
:00000001FF
