:020000040800F2
:100000006006002039020008770200087902000823
:100010007B0200087D0200087F020008000000004B
:100020000000000000000000000000008102000845
:100030008302000800000000850200088702000813
:100040008902000889020008890200088902000864
:100050008902000889020008890200088902000854
:100060008902000889020008890200088902000844
:100070008902000889020008890200088902000834
:100080008902000889020008890200088902000824
:100090008902000889020008890200088902000814
:1000A0008902000889020008890200088902000804
:1000B00089020008890200088902000889020008F4
:1000C00089020008890200088902000889020008E4
:1000D00089020008890200088902000889020008D4
:1000E00089020008890200088902000889020008C4
:1000F00089020008890200088902000889020008B4
:1001000089020008890200088902000889020008A3
:100110008902000889020008890200088902000893
:100120008902000889020008890200088902000883
:100130008902000889020008890200088902000873
:100140008902000889020008890200088902000863
:100150008902000889020008890200088902000853
:100160008902000889020008890200088902000843
:1001700089020008890200088902000800000000C6
:10018000890200088902000800F002F800F044F833
:1001900014A696E8000CB244B344DA4501D100F04D
:1001A0003BF8BAE80F000FA696E83000A5EB04056F
:1001B00004EB0607AAEB0704A7F101074FEA1515A0
:1001C0004FEA3414A4F10104AC4201D300F024F846
:1001D00013F0010F18BFFB1A43F0010300F001F800
:1001E000DBE71847C4040000D40400007047000097
:1001F0000023002400250026103A28BF78C1FBD830
:10020000520728BF30C148BF0B6070471FB500F0D0
:100210003EFA1FBD10B510BD00F057F81146FFF7AC
:10022000F5FF00F01BFA00F075F803B4FFF7F2FFDA
:1002300003BC00F07DF8000017481849184B99429C
:100240003CBF50F8042B41F8042BF8D3154B16494A
:100250004FF000028B4238BF43F8042BFAD3DFF88B
:100260004C00016841F470010160BFF34F8FBFF390
:100270006F8F0F480047FEE7FEE7FEE7FEE7FEE769
:10028000FEE7FEE7FEE7FEE7FEE7000009480A4951
:100290000A4A0B4B70470000B80600080000002017
:1002A00000000020000000206006002088ED00E033
:1002B0008901000860000020600600206002002024
:1002C00060020020704770477047754600F02CF8B8
:1002D000AE4605006946534620F00700854618B033
:1002E00020B5FFF7D3FFBDE820404FF000064FF0E8
:1002F00000074FF000084FF0000BAC46ACE8C00917
:10030000ACE8C009ACE8C009ACE8C00921F00701BD
:100310008D46704710B50446AFF300802046BDE817
:100320001040FFF782BF0000004870470000002027
:1003300001491820ABBEFEE726000200704700000E
:1003400041F24C01C4F20201086840F00400086068
:1003500040F60001C4F60001086820F4406008601F
:10036000086840F480600860086820F44050086025
:10037000086840F480500860086820F44030086045
:10038000086840F480300860086820F44020086065
:10039000086840F48020086040F60801C4F60001B7
:1003A000086820F440600860086840F40060086055
:1003B000086820F440500860086840F40050086065
:1003C000086820F440300860086840F40030086095
:1003D000086820F440200860086840F400200860A5
:1003E00040F60401C4F60001086820F0200008600F
:1003F000086820F040000860086820F480700860F9
:10040000086820F40070086040F60C01C4F6000192
:10041000086820F440600860086820F440500860D4
:10042000086820F440300860086820F44020086024
:100430007047000090B040F61401C4F60001079127
:10044000086820F020000860086820F0400008607C
:10045000086820F480700860086840F40070086044
:1004600000200F90FFE70F98B0F57A7F05DAFFE7DD
:10047000FFE70F9801300F90F5E740F61401C4F63E
:1004800000010691086820F020000860086840F02C
:1004900040000860086820F480700860086840F434
:1004A0000070086000200E90FFE70E98B0F57A7F8C
:1004B00005DAFFE7FFE70E9801300E90F5E740F60A
:1004C0001401C4F600010591086820F020000860BE
:1004D000086840F040000860086820F480700860F8
:1004E000086820F40070086000200D90FFE70D9868
:1004F000B0F57A7F05DAFFE7FFE70D9801300D9040
:10050000F5E740F61401C4F600010491086820F0F4
:1005100020000860086840F040000860086840F467
:1005200080700860086820F40070086000200C905B
:10053000FFE70C98B0F57A7F05DAFFE7FFE70C9844
:1005400001300C90F5E740F61401C4F60001039168
:10055000086820F020000860086820F0400008606B
:10056000086840F480700860086820F40070086033
:1005700000200B90FFE70B98B0F57A7F05DAFFE7D4
:10058000FFE70B9801300B90F5E740F61401C4F635
:1005900000010291086840F020000860086820F01F
:1005A00040000860086840F480700860086820F423
:1005B0000070086000200A90FFE70A98B0F57A7F83
:1005C00005DAFFE7FFE70A9801300A90F5E740F601
:1005D0001401C4F600010191086840F02000086091
:1005E000086820F040000860086820F48070086007
:1005F000086820F40070086000200990FFE709985F
:10060000B0F57A7F05DAFFE7FFE709980130099036
:10061000F5E740F61401C4F600010091086840F0C7
:1006200020000860086820F040000860086820F496
:1006300080700860086840F400700860002008902E
:10064000FFE70898B0F57A7F05DAFFE7FFE708983B
:1006500001300890F5E710B07047000080B584B015
:10066000002001900390FFF76BFE01980290FFE7D6
:100670000298B0F5007F07DAFFE7FFF7DBFEFFE740
:10068000029801300290F3E7039804B080BDF1EEC8
:10069000100A4FF6FF71C0F2C03120EA010040F0AD
:1006A0004070E1EE100A7047B80600080000002014
:0806B00060060000F0010008E3
:040000050800018965
:00000001FF
